:100000000C9469000C9491000C9491000C94910054
:100010000C9491000C9491000C9491000C9491001C
:100020000C9491000C9491000C9491000C9491000C
:100030000C9491000C9491000C9491000C949100FC
:100040000C942D010C9477010C9491000C94910068
:100050000C9491000C9491000C9491000C949100DC
:100060000C9491000C9491006364696E6F707375C9
:1000700078585B0000000000240027002A000000E0
:100080000000250028002B000404040404040404D8
:10009000020202020202030303030303020203013A
:1000A000020408102040800102040810200102040C
:1000B00008102040804000000009000302000004F6
:1000C00005080000000000000000000000004A03D6
:1000D000A10311241FBECFEFD4E0DEBFCDBF11E0DE
:1000E000A0E0B1E0ECE6F0E102C005900D92AE3187
:1000F000B107D9F721E0AEE1B1E001C01D92A7350B
:10010000B207E1F710E0C8E6D0E004C02197FE0195
:100110000E94B303C736D107C9F70E9490010C941F
:1001200029080C94000090E0FC01EA54FF4F249150
:10013000FC01E156FF4F3491FC01E857FF4FE49179
:10014000EE23C9F0222339F0243001F1A8F4223043
:1001500069F1233079F1F0E0EE0FFF1FE258FF4F15
:10016000A591B4918FB7F894EC91611126C03095A8
:100170003E233C938FBF0895283071F0293091F0D1
:10018000253049F7809180008F7D03C080918000E9
:100190008F7780938000DFCF8091B0008F7780933E
:1001A000B000D9CF8091B0008F7DF9CF84B58F7723
:1001B00084BDD1CF84B58F7DFBCF3E2BDACFCF93DB
:1001C000DF9390E0FC01E156FF4F249188579F4F49
:1001D000FC0184918823D1F090E0880F991FFC01E5
:1001E000EC58FF4FA591B491FC01E258FF4FC59127
:1001F000D49161110EC09FB7F8948C91E22FE095D5
:100200008E238C932881E223E8839FBFDF91CF91D7
:1002100008958FB7F894EC91E22BEC938FBFF6CF53
:100220000CB405FC0DC09EBD00000DB407FEFDCF53
:100230009EB58EBD00000DB407FEFDCF8EB50895AE
:100240008EBD00000DB407FEFDCF8EB59EBD000033
:100250000DB407FEFDCF9EB508951F920F920FB605
:100260000F9211242F933F938F939F93AF93BF933C
:1002700080914F0190915001A0915101B091520194
:1002800030914E0126E0230F2D3768F129E8230F26
:100290000396A11DB11D20934E0180934F019093B1
:1002A0005001A0935101B093520180914A01909165
:1002B0004B01A0914C01B0914D010196A11DB11DC2
:1002C00080934A0190934B01A0934C01B0934D0150
:1002D000BF91AF919F918F913F912F910F900FBE42
:1002E0000F901F9018950296A11DB11DD4CF1F929B
:1002F0000F920FB60F9211248F93EF93FF938EB549
:10030000E2E2F1E086A38CB58F778CBD81E087A314
:10031000FF91EF918F910F900FBE0F901F90189546
:10032000789484B5836084BD85B5836085BD8091F4
:100330006E00816080936E0082E0809381008091E6
:100340008100816080938100809180008160809332
:1003500080008091B10084608093B1008091B000F2
:1003600081608093B00086E880937A001092C1008B
:1003700084E090E0909339018093380180E69AEE12
:10038000A0E0B0E08093400190934101A09342012E
:10039000B093430184EF91E0A0E0B0E0809344018A
:1003A00090934501A0934601B093470184E090E00B
:1003B0000E94B903909323018093220184E090E08E
:1003C0000E94B903909325018093240180E190E07D
:1003D0000E94B903909327018093260110E001E069
:1003E000C12FD0E08091380190913901C817D90709
:1003F000B8F5E0912401F0912501EC0FFD1F008379
:10040000FE01E050FF4F8081E0912201F091230135
:10041000EC0FFD1F8083CE01880F991F880F991F55
:10042000E0912601F0912701E80FF91F1082118257
:1004300012821382E0912201F0912301EC0FFD1F43
:1004400061E080810E94DF00809122019091230170
:10045000C80FD91F60E088810E9493001F5FC0CF42
:1004600061E08CE00E94DF0060E08BE00E94DF0032
:1004700060E08AE00E94DF0060E08AE00E94930072
:100480008CB580688CBD88E199E20FB6F894A89588
:10049000809360000FBE9093600021E2D22E38E37B
:1004A000E32E31E0F32ECC24C39400E010E0A895B5
:1004B000809149018823B9F1809148018C3041F045
:1004C00008F0BFC0843021F0883011F0823031F55F
:1004D0008091400190914101A0914201B09143016E
:1004E0002FB7F89440914F01509150016091510104
:1004F000709152012FBFE0914801EC7F20912601BD
:1005000030912701E20FF32FF11D840F951FA61FD5
:10051000B71F80839183A283B383DEBC8CB58068D0
:100520008CBD109249012FB7F89480914F019091A2
:100530005001A0915101B09152012FBF40911E0175
:1005400050911F0160912001709121014C015D01CA
:10055000841A950AA60AB70A4091440150914501B0
:100560006091460170914701481559056A057B0560
:1005700008F089C080931E0190931F01A093200171
:10058000B09321018090400190904101A0904201E0
:10059000B09043012FB7F89480914F019091500192
:1005A000A0915101B09152012FBF880E991EAA1E31
:1005B000BB1E712CC72DD0E080913801909139017C
:1005C000C817D90708F05FC0E0912201F09123011C
:1005D000EC0FFD1F8081E0912601F09127019E0123
:1005E000220F331F220F331FE20FF31F408151816F
:1005F0006281738114012501241A350A460A570ABB
:10060000409140015091410160914201709143013C
:100610004215530564057505A0F5E0912401F0919C
:100620002501EC0FFD1F60810E9493008091240141
:1006300090912501C80FD91F88818C2588837394D8
:10064000B9CF893399F08A3339F0853109F066CF13
:10065000809138018EBD62CFC0E3D1E0899199913C
:100660000E941001EC16FD06C9F758CFC8E2D1E090
:10067000899199910E94100181E0C033D807C1F798
:100680004DCF61E0D1CF0115110509F410CF0E94C3
:1006900000000DCFEF92FF920F931F93CF93DF9344
:1006A0008CB580648CBDE2E2F1E016A2128E138E4E
:1006B000148E158E17A288E2E82E81E0F82E88E0CD
:1006C000F70111928A95E9F786E391E09F938F9362
:1006D00084E391E09F938F9382E391E09F938F93C4
:1006E00080E391E09F938F930AE011E01F930F93B3
:1006F000C7E1D1E0DF93CF930E94DE048EE291E068
:100700009F938F938CE291E09F938F938AE291E085
:100710009F938F93FF92EF921F930F93DF93CF934B
:100720000E94DE048DB79EB748960FB6F8949EBF20
:100730000FBE8DBFDF91CF911F910F91FF90EF9072
:100740000895CF93DF93C2E2D1E0888199810E941E
:1007500055048A819B810E9455048C819D81DF9183
:10076000CF910C945504EE0FFF1F0590F491E02DEE
:1007700009940F931F93CF93DF938230910510F468
:1007800082E090E0E0915501F091560130E020E0E8
:10079000B0E0A0E0309799F42115310509F44AC082
:1007A000281B390B24303105D8F58A819B816115CE
:1007B000710589F1FB0193838283FE0111C04081A1
:1007C00051810281138148175907E0F048175907F2
:1007D00099F4109761F012960C93129713961C934C
:1007E0003296CF01DF91CF911F910F910895009321
:1007F000550110935601F4CF2115310551F04217E0
:10080000530738F0A901DB019A01BD01DF01F801AE
:10081000C1CFEF01F9CF9093560180935501CDCF11
:10082000FE01E20FF31F8193919322503109398326
:100830002883D7CF2091530130915401232B41F4C9
:100840002091060130910701309354012093530108
:1008500020910401309105012115310541F42DB796
:100860003EB74091080150910901241B350BE091DE
:100870005301F0915401E217F307A0F42E1B3F0B34
:100880002817390778F0AC014E5F5F4F2417350702
:1008900048F04E0F5F1F50935401409353018193D2
:1008A00091939FCFF0E0E0E09CCFCF93DF93009750
:1008B000E9F0FC01329713821282A0915501B091A8
:1008C0005601ED0130E020E01097A1F42081318144
:1008D000820F931F2091530130915401281739073B
:1008E00009F061C0F0935401E0935301DF91CF917F
:1008F0000895EA01CE17DF07E8F54A815B819E0182
:1009000041155105B1F7E901FB83EA8349915991FA
:10091000C40FD51FEC17FD0761F480819181029609
:10092000840F951FE90199838883828193819B833A
:100930008A83F0E0E0E012968D919C9113970097E6
:10094000B9F52D913C911197CD010296820F931F1D
:1009500020915301309154012817390739F6309707
:1009600051F51092560110925501B0935401A09385
:100970005301BCCFD383C28340815181840F951F23
:10098000C817D90761F44E5F5F4F88819981480F7E
:10099000591F518340838A819B81938382832115D0
:1009A000310509F0B0CFF0935601E09355019ECF89
:1009B000FD01DC01C0CF13821282D7CFAEE0B0E0E0
:1009C000E4EEF4E00C94020885E08C838B899C892A
:1009D0009A838983AE01495E5F4F6D897E89CE011E
:1009E00001960E9482062E96E2E00C941E0820FDDD
:1009F00009C0FC0123FD05C022FF02C0738362838E
:100A000051834083089544FD17C046FD1DC0DB019E
:100A1000FC01AA0FBB1FEE1FFF1F1094D1F76A0F36
:100A20007B1F8E1F9F1F660F771F881F991F620FE6
:100A3000711D811D911D089533E0660F771F881F7A
:100A4000991F3150D1F7F3CF34E0F7CF0F931F93B5
:100A5000CF93DF938C01C8010E949B07EC0197FDA7
:100A600008C00E948707892BB1F7B801CE010E9408
:100A7000D707CE01DF91CF911F910F9108958F92EB
:100A80009F92AF92BF92EF92FF920F931F93CF93DB
:100A9000DF938C01D62F7A01B22E0E949B079C0116
:100AA00033272B32310529F02D323105A9F4689412
:100AB000B7F8D15061F480E0DF91CF911F910F9191
:100AC000FF90EF90BF90AF909F908F900895C801D6
:100AD0000E949B0797FDEFCFCB2DCD7F2B2D207351
:100AE000F9F48033E9F4AA24AA94AD0E89F0C80180
:100AF0000E949B0797FD0CC0282F2F7D283561F49D
:100B0000C264D25029F0C8010E949B0797FF08C019
:100B1000812C912C54011BC0B6FE2BC0C260DA2D73
:100B2000812C912C540120ED280F283028F1C4FD90
:100B300009C02A3008F1C6FF05C02F7D3FEE320FF5
:100B40003630C8F0B8010E94D707C1FFB4CFC7FF45
:100B500008C0B094A09490948094811C911CA11C16
:100B6000B11C2C2FB501A401C7010E94F70481E03C
:100B7000A3CFC261D4CF27504C2FC501B4010E942E
:100B800003054B015C01C260D15009F3C8010E940A
:100B90009B0797FFC8CFD9CFA0E2B0E0E2EDF5E028
:100BA0000C94F7075C01962E7A01CE0101966C0138
:100BB00080E2F60111928A95E9F7F501B381890186
:100BC00030E020E0712C812CA0E041E050E0F80101
:100BD000B3FD8591B3FF8191982F8F01811107C0DB
:100BE00010E000E0C801A096EDE00C9413088E35EB
:100BF00019F42115310541F1A21713064CF48D3576
:100C000049F18D3229F4811006C0882483941DC0D7
:100C1000882009F464C0E92FE695E695E695EC0D89
:100C2000FD2DF11D892F8770BA0101C0660F8A95CD
:100C3000EAF78081682B6083791651F0971510F4DC
:100C40009F5FE9CF9150E7CFA1E02F5F3F4FBFCF2C
:100C5000812CFBCF882019F08E8180628E83AA239D
:100C600059F0F6019E012F5D3F4F80818095808372
:100C70003196E217F307C9F788248394C5010E94CF
:100C80009B0797FD16C0E82FE695E695E695EC0DD7
:100C9000FD2DF11D208130E0AC014770552702C0C9
:100CA000359527954A95E2F720FD06C0B5010E94CB
:100CB000D707882069F094CFE114F10429F0F701F7
:100CC0008083C70101967C019A94812C9110D6CF24
:100CD000E114F10409F486CFF701108283CFE82FE5
:100CE000E695E695E695EC0DFD2DF11D982F977094
:100CF000BA0101C0660F9A95EAF79081692B60836B
:100D0000782EA3CFB0E0A0E0E8E8F6E00C94F50779
:100D10006C01EB015A01FC0117821682512CF6017D
:100D2000E380FE01E3FC8591E3FE8191182FEF0142
:100D30008823E9F090E00E948707892B21F0C60103
:100D40000E942605ECCF153241F4FE01E3FC15911B
:100D5000E3FE1191EF01153269F4C6010E949B0771
:100D600097FD8EC01817D9F2B6010E94D707852DBE
:100D700090E08AC000E01A3231F4E3FC1591E3FE02
:100D80001191EF0101E0F12C20ED210F2A3048F103
:100D900001FF37C0FF2059F31836B1F11C3609F4B2
:100DA0003DC0112321F3612F70E088E690E00E949E
:100DB0009007892BE1F2912C812C00FD06C0F501F2
:100DC00080809180C50102965C011E3679F5F6019E
:100DD0004681578170E060E0202FC4010E94F70433
:100DE0009ECF02606F2D70E090E080E040E20E94B4
:100DF0000305F62EFE01E3FC1591E3FE1191EF01D0
:100E0000C3CFFF24FA94C8CFFE01E3FC1591E3FEA3
:100E10001191EF01183609F0C4CF08600460FE019B
:100E2000E3FC1591E3FE1191EF01BBCF1336C1F442
:100E300001FD02C0FF24F394C6010E949B0797FDA9
:100E40001FC08114910429F0F4018083C40101962C
:100E50004C01FA94F110F0CF00FD61CF53945FCFB5
:100E60001B35B9F49E01A4016F2DC6010E94CC056B
:100E7000EC01892B89F7F6018381807309F477CF20
:100E80008FEF9FEF511073CFCDB7DEB7EFE00C942B
:100E90001108C6010E94260597FDF2CF1F36A9F161
:100EA00030F4143641F0193639F0006405C01337B8
:100EB000B9F01537D1F70062202FA4016F2DC601BC
:100EC0000E943F058111C8CFD6CF8114910429F02B
:100ED000F4016082C40101964C01FA94FF2071F084
:100EE000C6010E949B073C0197FD08C00E9487072E
:100EF000892B59F3B601C3010E94D70781149104CD
:100F000009F4AACFF4011082A7CF0061D5CF9111C7
:100F10000C94EF07803219F089508550C8F7089576
:100F2000FC010590061621F00020D9F7C0010895B4
:100F30003197CF010895CF93DF93EC012B8120FFF0
:100F40001AC026FF0CC02F7B2B838E819F810196B8
:100F50009F838E838A8190E0DF91CF91089522FF55
:100F600018C0E881F9818081082E000C990B009748
:100F700029F420622B838FEF9FEFEECF3196F98318
:100F8000E8832E813F812F5F3F4F3F832E83992738
:100F9000E3CFEA85FB85099597FFF3CF2B81019677
:100FA00021F080E2822B8B83E6CF80E1FBCFFB0137
:100FB000238120FF11C026FD0FC08F3F980771F0DD
:100FC00082832F7D2064238326813781215031093C
:100FD00037832683992708958FEF9FEF08959927E8
:100FE000882708952F923F924F925F926F927F923F
:100FF0008F929F92AF92BF92CF92DF92EF92FF9229
:101000000F931F93CF93DF93CDB7DEB7CA1BDB0BD4
:101010000FB6F894DEBF0FBECDBF09942A88398879
:1010200048885F846E847D848C849B84AA84B98480
:10103000C884DF80EE80FD800C811B81AA81B9818C
:10104000CE0FD11D0FB6F894DEBF0FBECDBFED01A0
:10105000089510E0C8E6D0E004C0FE010E94B3038A
:0C1060002196C936D107C9F7F894FFCFDC
:10106C000E10121300005701800025752E25752EC9
:0E107C0025347525347500312E302E300000DD
:00000001FF
